{
  "_format": "hh-sol-artifact-1",
  "contractName": "Blog",
  "sourceName": "contracts/Blog.sol",
  "abi": [
    {
      "inputs": [
        {
          "internalType": "string",
          "name": "_name",
          "type": "string"
        }
      ],
      "stateMutability": "nonpayable",
      "type": "constructor"
    },
    {
      "anonymous": false,
      "inputs": [
        {
          "indexed": false,
          "internalType": "uint256",
          "name": "id",
          "type": "uint256"
        },
        {
          "indexed": false,
          "internalType": "string",
          "name": "title",
          "type": "string"
        },
        {
          "indexed": false,
          "internalType": "string",
          "name": "hashCode",
          "type": "string"
        }
      ],
      "name": "CreatePost",
      "type": "event"
    },
    {
      "anonymous": false,
      "inputs": [
        {
          "indexed": true,
          "internalType": "address",
          "name": "previousOwner",
          "type": "address"
        },
        {
          "indexed": true,
          "internalType": "address",
          "name": "newOwner",
          "type": "address"
        }
      ],
      "name": "OwnershipTransferred",
      "type": "event"
    },
    {
      "anonymous": false,
      "inputs": [
        {
          "indexed": false,
          "internalType": "uint256",
          "name": "id",
          "type": "uint256"
        },
        {
          "indexed": false,
          "internalType": "string",
          "name": "title",
          "type": "string"
        },
        {
          "indexed": false,
          "internalType": "string",
          "name": "hashCode",
          "type": "string"
        },
        {
          "indexed": false,
          "internalType": "bool",
          "name": "published",
          "type": "bool"
        }
      ],
      "name": "UpdatePost",
      "type": "event"
    },
    {
      "inputs": [
        {
          "internalType": "string",
          "name": "title",
          "type": "string"
        },
        {
          "internalType": "string",
          "name": "hashCode",
          "type": "string"
        }
      ],
      "name": "createPost",
      "outputs": [],
      "stateMutability": "nonpayable",
      "type": "function"
    },
    {
      "inputs": [
        {
          "internalType": "string",
          "name": "_hash",
          "type": "string"
        }
      ],
      "name": "fetchPost",
      "outputs": [
        {
          "components": [
            {
              "internalType": "uint256",
              "name": "id",
              "type": "uint256"
            },
            {
              "internalType": "string",
              "name": "title",
              "type": "string"
            },
            {
              "internalType": "string",
              "name": "content",
              "type": "string"
            },
            {
              "internalType": "bool",
              "name": "published",
              "type": "bool"
            }
          ],
          "internalType": "struct Blog.Post",
          "name": "",
          "type": "tuple"
        }
      ],
      "stateMutability": "view",
      "type": "function"
    },
    {
      "inputs": [],
      "name": "fetchPosts",
      "outputs": [
        {
          "components": [
            {
              "internalType": "uint256",
              "name": "id",
              "type": "uint256"
            },
            {
              "internalType": "string",
              "name": "title",
              "type": "string"
            },
            {
              "internalType": "string",
              "name": "content",
              "type": "string"
            },
            {
              "internalType": "bool",
              "name": "published",
              "type": "bool"
            }
          ],
          "internalType": "struct Blog.Post[]",
          "name": "",
          "type": "tuple[]"
        }
      ],
      "stateMutability": "view",
      "type": "function"
    },
    {
      "inputs": [],
      "name": "name",
      "outputs": [
        {
          "internalType": "string",
          "name": "",
          "type": "string"
        }
      ],
      "stateMutability": "view",
      "type": "function"
    },
    {
      "inputs": [],
      "name": "owner",
      "outputs": [
        {
          "internalType": "address",
          "name": "",
          "type": "address"
        }
      ],
      "stateMutability": "view",
      "type": "function"
    },
    {
      "inputs": [],
      "name": "renounceOwnership",
      "outputs": [],
      "stateMutability": "nonpayable",
      "type": "function"
    },
    {
      "inputs": [
        {
          "internalType": "address",
          "name": "newOwner",
          "type": "address"
        }
      ],
      "name": "transferOwnership",
      "outputs": [],
      "stateMutability": "nonpayable",
      "type": "function"
    },
    {
      "inputs": [
        {
          "internalType": "uint256",
          "name": "postId",
          "type": "uint256"
        },
        {
          "internalType": "string",
          "name": "title",
          "type": "string"
        },
        {
          "internalType": "string",
          "name": "hashCode",
          "type": "string"
        },
        {
          "internalType": "bool",
          "name": "published",
          "type": "bool"
        }
      ],
      "name": "updatePost",
      "outputs": [],
      "stateMutability": "nonpayable",
      "type": "function"
    },
    {
      "inputs": [
        {
          "internalType": "string",
          "name": "_name",
          "type": "string"
        }
      ],
      "name": "updatePostName",
      "outputs": [],
      "stateMutability": "nonpayable",
      "type": "function"
    }
  ],
  "bytecode": "0x60806040523480156200001157600080fd5b506040516200222438038062002224833981810160405281019062000037919062000380565b620000576200004b620000c360201b60201c565b620000cb60201b60201c565b620000a36040518060400160405280601981526020017f4465706c6f79696e6720426c6f672077697468206e616d653a00000000000000815250826200018f60201b62000d251760201c565b8060019080519060200190620000bb9291906200025e565b5050620005cd565b600033905090565b60008060009054906101000a900473ffffffffffffffffffffffffffffffffffffffff169050816000806101000a81548173ffffffffffffffffffffffffffffffffffffffff021916908373ffffffffffffffffffffffffffffffffffffffff1602179055508173ffffffffffffffffffffffffffffffffffffffff168173ffffffffffffffffffffffffffffffffffffffff167f8be0079c531659141344cd1fd0a4f28419497f9722a3daafe3b4186f6b6457e060405160405180910390a35050565b620002318282604051602401620001a892919062000406565b6040516020818303038152906040527f4b5c4277000000000000000000000000000000000000000000000000000000007bffffffffffffffffffffffffffffffffffffffffffffffffffffffff19166020820180517bffffffffffffffffffffffffffffffffffffffffffffffffffffffff83818316178352505050506200023560201b60201c565b5050565b60008151905060006a636f6e736f6c652e6c6f679050602083016000808483855afa5050505050565b8280546200026c90620004f2565b90600052602060002090601f016020900481019282620002905760008555620002dc565b82601f10620002ab57805160ff1916838001178555620002dc565b82800160010185558215620002dc579182015b82811115620002db578251825591602001919060010190620002be565b5b509050620002eb9190620002ef565b5090565b5b808211156200030a576000816000905550600101620002f0565b5090565b6000620003256200031f846200046a565b62000441565b9050828152602081018484840111156200033e57600080fd5b6200034b848285620004bc565b509392505050565b600082601f8301126200036557600080fd5b8151620003778482602086016200030e565b91505092915050565b6000602082840312156200039357600080fd5b600082015167ffffffffffffffff811115620003ae57600080fd5b620003bc8482850162000353565b91505092915050565b6000620003d282620004a0565b620003de8185620004ab565b9350620003f0818560208601620004bc565b620003fb81620005bc565b840191505092915050565b60006040820190508181036000830152620004228185620003c5565b90508181036020830152620004388184620003c5565b90509392505050565b60006200044d62000460565b90506200045b828262000528565b919050565b6000604051905090565b600067ffffffffffffffff8211156200048857620004876200058d565b5b6200049382620005bc565b9050602081019050919050565b600081519050919050565b600082825260208201905092915050565b60005b83811015620004dc578082015181840152602081019050620004bf565b83811115620004ec576000848401525b50505050565b600060028204905060018216806200050b57607f821691505b602082108114156200052257620005216200055e565b5b50919050565b6200053382620005bc565b810181811067ffffffffffffffff821117156200055557620005546200058d565b5b80604052505050565b7f4e487b7100000000000000000000000000000000000000000000000000000000600052602260045260246000fd5b7f4e487b7100000000000000000000000000000000000000000000000000000000600052604160045260246000fd5b6000601f19601f8301169050919050565b611c4780620005dd6000396000f3fe608060405234801561001057600080fd5b50600436106100935760003560e01c80638da5cb5b116100665780638da5cb5b1461010c578063abaddd7f1461012a578063bac1bb3114610148578063cd349fe914610164578063f2fde38b1461018057610093565b806306fdde0314610098578063392338f5146100b657806344828659146100d2578063715018a614610102575b600080fd5b6100a061019c565b6040516100ad919061166a565b60405180910390f35b6100d060048036038101906100cb9190611286565b61022a565b005b6100ec60048036038101906100e79190611245565b610447565b6040516100f991906117a9565b60405180910390f35b61010a6105c8565b005b610114610650565b604051610121919061162d565b60405180910390f35b610132610679565b60405161013f9190611648565b60405180910390f35b610162600480360381019061015d9190611245565b610902565b005b61017e600480360381019061017991906112f2565b610998565b005b61019a6004803603810190610195919061121c565b610c2d565b005b600180546101a990611a0a565b80601f01602080910402602001604051908101604052809291908181526020018280546101d590611a0a565b80156102225780601f106101f757610100808354040283529160200191610222565b820191906000526020600020905b81548152906001019060200180831161020557829003601f168201915b505050505081565b610232610dc1565b73ffffffffffffffffffffffffffffffffffffffff16610250610650565b73ffffffffffffffffffffffffffffffffffffffff16146102a6576040517f08c379a000000000000000000000000000000000000000000000000000000000815260040161029d90611789565b60405180910390fd5b6102b06002610dc9565b60006102bc6002610ddf565b90506000600360008381526020019081526020016000209050818160000181905550838160010190805190602001906102f692919061101b565b5060018160030160006101000a81548160ff0219169083151502179055508281600201908051906020019061032c92919061101b565b508060048460405161033e9190611616565b908152602001604051809103902060008201548160000155600182018160010190805461036a90611a0a565b6103759291906110a1565b50600282018160020190805461038a90611a0a565b6103959291906110a1565b506003820160009054906101000a900460ff168160030160006101000a81548160ff0219169083151502179055509050506104066040518060400160405280601281526020017f4372656174656420706f737420776974683a00000000000000000000000000008152508585610ded565b7f985c3b62e70efa6912d9a439854f96f5219c7eeae1689fc9e9e58b5bd7700c36828585604051610439939291906117cb565b60405180910390a150505050565b61044f61112e565b60048260405161045f9190611616565b90815260200160405180910390206040518060800160405290816000820154815260200160018201805461049290611a0a565b80601f01602080910402602001604051908101604052809291908181526020018280546104be90611a0a565b801561050b5780601f106104e05761010080835404028352916020019161050b565b820191906000526020600020905b8154815290600101906020018083116104ee57829003601f168201915b5050505050815260200160028201805461052490611a0a565b80601f016020809104026020016040519081016040528092919081815260200182805461055090611a0a565b801561059d5780601f106105725761010080835404028352916020019161059d565b820191906000526020600020905b81548152906001019060200180831161058057829003601f168201915b505050505081526020016003820160009054906101000a900460ff1615151515815250509050919050565b6105d0610dc1565b73ffffffffffffffffffffffffffffffffffffffff166105ee610650565b73ffffffffffffffffffffffffffffffffffffffff1614610644576040517f08c379a000000000000000000000000000000000000000000000000000000000815260040161063b90611789565b60405180910390fd5b61064e6000610e8c565b565b60008060009054906101000a900473ffffffffffffffffffffffffffffffffffffffff16905090565b606060006106876002610ddf565b90506000808267ffffffffffffffff8111156106cc577f4e487b7100000000000000000000000000000000000000000000000000000000600052604160045260246000fd5b60405190808252806020026020018201604052801561070557816020015b6106f261112e565b8152602001906001900390816106ea5790505b50905060005b838110156108f8576000600182610722919061192a565b90506000600360008381526020019081526020016000209050806040518060800160405290816000820154815260200160018201805461076190611a0a565b80601f016020809104026020016040519081016040528092919081815260200182805461078d90611a0a565b80156107da5780601f106107af576101008083540402835291602001916107da565b820191906000526020600020905b8154815290600101906020018083116107bd57829003601f168201915b505050505081526020016002820180546107f390611a0a565b80601f016020809104026020016040519081016040528092919081815260200182805461081f90611a0a565b801561086c5780601f106108415761010080835404028352916020019161086c565b820191906000526020600020905b81548152906001019060200180831161084f57829003601f168201915b505050505081526020016003820160009054906101000a900460ff1615151515815250508486815181106108c9577f4e487b7100000000000000000000000000000000000000000000000000000000600052603260045260246000fd5b60200260200101819052506001856108e1919061192a565b9450505080806108f090611a6d565b91505061070b565b5080935050505090565b61090a610dc1565b73ffffffffffffffffffffffffffffffffffffffff16610928610650565b73ffffffffffffffffffffffffffffffffffffffff161461097e576040517f08c379a000000000000000000000000000000000000000000000000000000000815260040161097590611789565b60405180910390fd5b806001908051906020019061099492919061101b565b5050565b6109a0610dc1565b73ffffffffffffffffffffffffffffffffffffffff166109be610650565b73ffffffffffffffffffffffffffffffffffffffff1614610a14576040517f08c379a0000000000000000000000000000000000000000000000000000000008152600401610a0b90611789565b60405180910390fd5b600060036000868152602001908152602001600020905083816001019080519060200190610a4392919061101b565b50818160030160006101000a81548160ff02191690831515021790555082816002019080519060200190610a7892919061101b565b5080600484604051610a8a9190611616565b9081526020016040518091039020600082015481600001556001820181600101908054610ab690611a0a565b610ac19291906110a1565b506002820181600201908054610ad690611a0a565b610ae19291906110a1565b506003820160009054906101000a900460ff168160030160006101000a81548160ff0219169083151502179055509050508060036000878152602001908152602001600020600082015481600001556001820181600101908054610b4490611a0a565b610b4f9291906110a1565b506002820181600201908054610b6490611a0a565b610b6f9291906110a1565b506003820160009054906101000a900460ff168160030160006101000a81548160ff021916908315150217905550905050610be56040518060400160405280601c81526020017f5570646174656420506f737420426c6f672077697468206e616d653a0000000081525082600001548686610f50565b7fade6f6b1760c6e3dc19ced318f6810920b7eefb965b80407724341989cbcfa5e8160000154858585604051610c1e9493929190611810565b60405180910390a15050505050565b610c35610dc1565b73ffffffffffffffffffffffffffffffffffffffff16610c53610650565b73ffffffffffffffffffffffffffffffffffffffff1614610ca9576040517f08c379a0000000000000000000000000000000000000000000000000000000008152600401610ca090611789565b60405180910390fd5b600073ffffffffffffffffffffffffffffffffffffffff168173ffffffffffffffffffffffffffffffffffffffff161415610d19576040517f08c379a0000000000000000000000000000000000000000000000000000000008152600401610d1090611769565b60405180910390fd5b610d2281610e8c565b50565b610dbd8282604051602401610d3b92919061168c565b6040516020818303038152906040527f4b5c4277000000000000000000000000000000000000000000000000000000007bffffffffffffffffffffffffffffffffffffffffffffffffffffffff19166020820180517bffffffffffffffffffffffffffffffffffffffffffffffffffffffff8381831617835250505050610ff2565b5050565b600033905090565b6001816000016000828254019250508190555050565b600081600001549050919050565b610e87838383604051602401610e05939291906116c3565b6040516020818303038152906040527f2ced7cef000000000000000000000000000000000000000000000000000000007bffffffffffffffffffffffffffffffffffffffffffffffffffffffff19166020820180517bffffffffffffffffffffffffffffffffffffffffffffffffffffffff8381831617835250505050610ff2565b505050565b60008060009054906101000a900473ffffffffffffffffffffffffffffffffffffffff169050816000806101000a81548173ffffffffffffffffffffffffffffffffffffffff021916908373ffffffffffffffffffffffffffffffffffffffff1602179055508173ffffffffffffffffffffffffffffffffffffffff168173ffffffffffffffffffffffffffffffffffffffff167f8be0079c531659141344cd1fd0a4f28419497f9722a3daafe3b4186f6b6457e060405160405180910390a35050565b610fec84848484604051602401610f6a949392919061170f565b6040516020818303038152906040527f6c98dae2000000000000000000000000000000000000000000000000000000007bffffffffffffffffffffffffffffffffffffffffffffffffffffffff19166020820180517bffffffffffffffffffffffffffffffffffffffffffffffffffffffff8381831617835250505050610ff2565b50505050565b60008151905060006a636f6e736f6c652e6c6f679050602083016000808483855afa5050505050565b82805461102790611a0a565b90600052602060002090601f0160209004810192826110495760008555611090565b82601f1061106257805160ff1916838001178555611090565b82800160010185558215611090579182015b8281111561108f578251825591602001919060010190611074565b5b50905061109d9190611158565b5090565b8280546110ad90611a0a565b90600052602060002090601f0160209004810192826110cf576000855561111d565b82601f106110e0578054855561111d565b8280016001018555821561111d57600052602060002091601f016020900482015b8281111561111c578254825591600101919060010190611101565b5b50905061112a9190611158565b5090565b60405180608001604052806000815260200160608152602001606081526020016000151581525090565b5b80821115611171576000816000905550600101611159565b5090565b600061118861118384611888565b611863565b9050828152602081018484840111156111a057600080fd5b6111ab8482856119c8565b509392505050565b6000813590506111c281611bcc565b92915050565b6000813590506111d781611be3565b92915050565b600082601f8301126111ee57600080fd5b81356111fe848260208601611175565b91505092915050565b60008135905061121681611bfa565b92915050565b60006020828403121561122e57600080fd5b600061123c848285016111b3565b91505092915050565b60006020828403121561125757600080fd5b600082013567ffffffffffffffff81111561127157600080fd5b61127d848285016111dd565b91505092915050565b6000806040838503121561129957600080fd5b600083013567ffffffffffffffff8111156112b357600080fd5b6112bf858286016111dd565b925050602083013567ffffffffffffffff8111156112dc57600080fd5b6112e8858286016111dd565b9150509250929050565b6000806000806080858703121561130857600080fd5b600061131687828801611207565b945050602085013567ffffffffffffffff81111561133357600080fd5b61133f878288016111dd565b935050604085013567ffffffffffffffff81111561135c57600080fd5b611368878288016111dd565b9250506060611379878288016111c8565b91505092959194509250565b60006113918383611524565b905092915050565b6113a281611980565b82525050565b60006113b3826118c9565b6113bd81856118ec565b9350836020820285016113cf856118b9565b8060005b8581101561140b57848403895281516113ec8582611385565b94506113f7836118df565b925060208a019950506001810190506113d3565b50829750879550505050505092915050565b61142681611992565b82525050565b61143581611992565b82525050565b6000611446826118d4565b61145081856118fd565b93506114608185602086016119d7565b61146981611b43565b840191505092915050565b600061147f826118d4565b611489818561190e565b93506114998185602086016119d7565b6114a281611b43565b840191505092915050565b60006114b8826118d4565b6114c2818561191f565b93506114d28185602086016119d7565b80840191505092915050565b60006114eb60268361190e565b91506114f682611b54565b604082019050919050565b600061150e60208361190e565b915061151982611ba3565b602082019050919050565b600060808301600083015161153c60008601826115f8565b5060208301518482036020860152611554828261143b565b9150506040830151848203604086015261156e828261143b565b9150506060830151611583606086018261141d565b508091505092915050565b60006080830160008301516115a660008601826115f8565b50602083015184820360208601526115be828261143b565b915050604083015184820360408601526115d8828261143b565b91505060608301516115ed606086018261141d565b508091505092915050565b611601816119be565b82525050565b611610816119be565b82525050565b600061162282846114ad565b915081905092915050565b60006020820190506116426000830184611399565b92915050565b6000602082019050818103600083015261166281846113a8565b905092915050565b600060208201905081810360008301526116848184611474565b905092915050565b600060408201905081810360008301526116a68185611474565b905081810360208301526116ba8184611474565b90509392505050565b600060608201905081810360008301526116dd8186611474565b905081810360208301526116f18185611474565b905081810360408301526117058184611474565b9050949350505050565b600060808201905081810360008301526117298187611474565b90506117386020830186611607565b818103604083015261174a8185611474565b9050818103606083015261175e8184611474565b905095945050505050565b60006020820190508181036000830152611782816114de565b9050919050565b600060208201905081810360008301526117a281611501565b9050919050565b600060208201905081810360008301526117c3818461158e565b905092915050565b60006060820190506117e06000830186611607565b81810360208301526117f28185611474565b905081810360408301526118068184611474565b9050949350505050565b60006080820190506118256000830187611607565b81810360208301526118378186611474565b9050818103604083015261184b8185611474565b905061185a606083018461142c565b95945050505050565b600061186d61187e565b90506118798282611a3c565b919050565b6000604051905090565b600067ffffffffffffffff8211156118a3576118a2611b14565b5b6118ac82611b43565b9050602081019050919050565b6000819050602082019050919050565b600081519050919050565b600081519050919050565b6000602082019050919050565b600082825260208201905092915050565b600082825260208201905092915050565b600082825260208201905092915050565b600081905092915050565b6000611935826119be565b9150611940836119be565b9250827fffffffffffffffffffffffffffffffffffffffffffffffffffffffffffffffff0382111561197557611974611ab6565b5b828201905092915050565b600061198b8261199e565b9050919050565b60008115159050919050565b600073ffffffffffffffffffffffffffffffffffffffff82169050919050565b6000819050919050565b82818337600083830152505050565b60005b838110156119f55780820151818401526020810190506119da565b83811115611a04576000848401525b50505050565b60006002820490506001821680611a2257607f821691505b60208210811415611a3657611a35611ae5565b5b50919050565b611a4582611b43565b810181811067ffffffffffffffff82111715611a6457611a63611b14565b5b80604052505050565b6000611a78826119be565b91507fffffffffffffffffffffffffffffffffffffffffffffffffffffffffffffffff821415611aab57611aaa611ab6565b5b600182019050919050565b7f4e487b7100000000000000000000000000000000000000000000000000000000600052601160045260246000fd5b7f4e487b7100000000000000000000000000000000000000000000000000000000600052602260045260246000fd5b7f4e487b7100000000000000000000000000000000000000000000000000000000600052604160045260246000fd5b6000601f19601f8301169050919050565b7f4f776e61626c653a206e6577206f776e657220697320746865207a65726f206160008201527f6464726573730000000000000000000000000000000000000000000000000000602082015250565b7f4f776e61626c653a2063616c6c6572206973206e6f7420746865206f776e6572600082015250565b611bd581611980565b8114611be057600080fd5b50565b611bec81611992565b8114611bf757600080fd5b50565b611c03816119be565b8114611c0e57600080fd5b5056fea2646970667358221220f7ff4ec9cb21ec1570d2d9846290f08a51f7bd462faf0b58469ab82e33a8593c64736f6c63430008040033",
  "linkReferences": {},
  "deployedLinkReferences": {}
}